{
  "contractName": "NoFilter",
  "abi": [
    {
      "constant": true,
      "inputs": [
        {
          "name": "",
          "type": "bytes32"
        }
      ],
      "name": "details",
      "outputs": [
        {
          "name": "uploaderId",
          "type": "address"
        },
        {
          "name": "description",
          "type": "string"
        },
        {
          "name": "vote",
          "type": "uint256"
        }
      ],
      "payable": false,
      "stateMutability": "view",
      "type": "function"
    },
    {
      "inputs": [],
      "payable": false,
      "stateMutability": "nonpayable",
      "type": "constructor"
    },
    {
      "payable": true,
      "stateMutability": "payable",
      "type": "fallback"
    },
    {
      "anonymous": false,
      "inputs": [
        {
          "indexed": false,
          "name": "voter",
          "type": "address"
        },
        {
          "indexed": true,
          "name": "ipfsHash",
          "type": "bytes32"
        },
        {
          "indexed": false,
          "name": "vote",
          "type": "uint256"
        }
      ],
      "name": "Vote",
      "type": "event"
    },
    {
      "anonymous": false,
      "inputs": [
        {
          "indexed": true,
          "name": "uploaderId",
          "type": "address"
        },
        {
          "indexed": true,
          "name": "ipfsHash",
          "type": "bytes32"
        }
      ],
      "name": "Alert",
      "type": "event"
    },
    {
      "constant": false,
      "inputs": [],
      "name": "kill",
      "outputs": [],
      "payable": false,
      "stateMutability": "nonpayable",
      "type": "function"
    },
    {
      "constant": false,
      "inputs": [
        {
          "name": "ipfsHash",
          "type": "bytes32"
        }
      ],
      "name": "upVote",
      "outputs": [
        {
          "name": "",
          "type": "uint256"
        }
      ],
      "payable": false,
      "stateMutability": "nonpayable",
      "type": "function"
    },
    {
      "constant": false,
      "inputs": [
        {
          "name": "ipfsHash",
          "type": "bytes32"
        }
      ],
      "name": "downVote",
      "outputs": [
        {
          "name": "",
          "type": "uint256"
        }
      ],
      "payable": false,
      "stateMutability": "nonpayable",
      "type": "function"
    },
    {
      "constant": false,
      "inputs": [
        {
          "name": "_uploaderId",
          "type": "address"
        },
        {
          "name": "_description",
          "type": "string"
        },
        {
          "name": "_tags",
          "type": "string[]"
        },
        {
          "name": "ipfsHash",
          "type": "bytes32"
        }
      ],
      "name": "upload",
      "outputs": [],
      "payable": false,
      "stateMutability": "nonpayable",
      "type": "function"
    },
    {
      "constant": false,
      "inputs": [
        {
          "name": "ipfsHash",
          "type": "bytes32"
        }
      ],
      "name": "delist",
      "outputs": [
        {
          "name": "",
          "type": "uint256"
        }
      ],
      "payable": false,
      "stateMutability": "nonpayable",
      "type": "function"
    },
    {
      "constant": false,
      "inputs": [
        {
          "name": "ipfsHash",
          "type": "bytes32"
        },
        {
          "name": "_tags",
          "type": "string[]"
        }
      ],
      "name": "updateTags",
      "outputs": [],
      "payable": false,
      "stateMutability": "nonpayable",
      "type": "function"
    },
    {
      "constant": true,
      "inputs": [
        {
          "name": "ipfsHash",
          "type": "bytes32"
        }
      ],
      "name": "getDetails",
      "outputs": [
        {
          "name": "",
          "type": "address"
        },
        {
          "name": "",
          "type": "string"
        },
        {
          "name": "",
          "type": "string[]"
        },
        {
          "name": "",
          "type": "uint256"
        }
      ],
      "payable": false,
      "stateMutability": "view",
      "type": "function"
    }
  ],
  "bytecode": "0x608060405234801561001057600080fd5b50336000806101000a81548173ffffffffffffffffffffffffffffffffffffffff021916908373ffffffffffffffffffffffffffffffffffffffff160217905550611249806100606000396000f30060806040526004361061008e576000357c0100000000000000000000000000000000000000000000000000000000900463ffffffff16806328855471146100905780632d0a85aa146100b957806341c0e1b5146100f65780636605347d1461010d57806366c112fc146101365780639348c30d14610173578063982b48d1146101b0578063984bc700146101ef575b005b34801561009c57600080fd5b506100b760048036036100b29190810190610e08565b61022f565b005b3480156100c557600080fd5b506100e060048036036100db9190810190610ddf565b6102ae565b6040516100ed9190611065565b60405180910390f35b34801561010257600080fd5b5061010b6103f1565b005b34801561011957600080fd5b50610134600480360361012f9190810190610d4c565b610482565b005b34801561014257600080fd5b5061015d60048036036101589190810190610ddf565b6105b8565b60405161016a9190611065565b60405180910390f35b34801561017f57600080fd5b5061019a60048036036101959190810190610ddf565b610668565b6040516101a79190611065565b60405180910390f35b3480156101bc57600080fd5b506101d760048036036101d29190810190610ddf565b610718565b6040516101e693929190610fde565b60405180910390f35b3480156101fb57600080fd5b5061021660048036036102119190810190610ddf565b6107fa565b6040516102269493929190610f8b565b60405180910390f35b806001600084600019166000191681526020019081526020016000206002019080519060200190610261929190610a29565b5081600019163373ffffffffffffffffffffffffffffffffffffffff167f431202dc4cf9ec5cba6a79a9ab341db3ca17c2182dc52584b2558999eecd83b060405160405180910390a35050565b60008060009054906101000a900473ffffffffffffffffffffffffffffffffffffffff1673ffffffffffffffffffffffffffffffffffffffff163373ffffffffffffffffffffffffffffffffffffffff16141515610341576040517f08c379a000000000000000000000000000000000000000000000000000000000815260040161033890611045565b60405180910390fd5b6103e86001600084600019166000191681526020019081526020016000206003016000828254039250508190555081600019167f7abfc9285853378c85b200bd11aff679dc29b7ce51ef85ed184e149801dadd0633600160008660001916600019168152602001908152602001600020600301546040516103c392919061101c565b60405180910390a2600160008360001916600019168152602001908152602001600020600301549050919050565b6000809054906101000a900473ffffffffffffffffffffffffffffffffffffffff1673ffffffffffffffffffffffffffffffffffffffff163373ffffffffffffffffffffffffffffffffffffffff161415610480576000809054906101000a900473ffffffffffffffffffffffffffffffffffffffff1673ffffffffffffffffffffffffffffffffffffffff16ff5b565b6000600190506080604051908101604052808673ffffffffffffffffffffffffffffffffffffffff1681526020018581526020018481526020018281525060016000846000191660001916815260200190815260200160002060008201518160000160006101000a81548173ffffffffffffffffffffffffffffffffffffffff021916908373ffffffffffffffffffffffffffffffffffffffff160217905550602082015181600101908051906020019061053e929190610a89565b50604082015181600201908051906020019061055b929190610b09565b506060820151816003015590505081600019163373ffffffffffffffffffffffffffffffffffffffff167f431202dc4cf9ec5cba6a79a9ab341db3ca17c2182dc52584b2558999eecd83b060405160405180910390a35050505050565b6000600180600084600019166000191681526020019081526020016000206003016000828254019250508190555081600019167f7abfc9285853378c85b200bd11aff679dc29b7ce51ef85ed184e149801dadd06336001600086600019166000191681526020019081526020016000206003015460405161063a92919061101c565b60405180910390a2600160008360001916600019168152602001908152602001600020600301549050919050565b6000600180600084600019166000191681526020019081526020016000206003016000828254039250508190555081600019167f7abfc9285853378c85b200bd11aff679dc29b7ce51ef85ed184e149801dadd0633600160008660001916600019168152602001908152602001600020600301546040516106ea92919061101c565b60405180910390a2600160008360001916600019168152602001908152602001600020600301549050919050565b60016020528060005260406000206000915090508060000160009054906101000a900473ffffffffffffffffffffffffffffffffffffffff1690806001018054600181600116156101000203166002900480601f0160208091040260200160405190810160405280929190818152602001828054600181600116156101000203166002900480156107ea5780601f106107bf576101008083540402835291602001916107ea565b820191906000526020600020905b8154815290600101906020018083116107cd57829003601f168201915b5050505050908060030154905083565b6000606080600060016000866000191660001916815260200190815260200160002060000160009054906101000a900473ffffffffffffffffffffffffffffffffffffffff1660016000876000191660001916815260200190815260200160002060010160016000886000191660001916815260200190815260200160002060020160016000896000191660001916815260200190815260200160002060030154828054600181600116156101000203166002900480601f0160208091040260200160405190810160405280929190818152602001828054600181600116156101000203166002900480156109305780601f1061090557610100808354040283529160200191610930565b820191906000526020600020905b81548152906001019060200180831161091357829003601f168201915b5050505050925081805480602002602001604051908101604052809291908181526020016000905b82821015610a14578382906000526020600020018054600181600116156101000203166002900480601f016020809104026020016040519081016040528092919081815260200182805460018160011615610100020316600290048015610a005780601f106109d557610100808354040283529160200191610a00565b820191906000526020600020905b8154815290600101906020018083116109e357829003601f168201915b505050505081526020019060010190610958565b50505050915093509350935093509193509193565b828054828255906000526020600020908101928215610a78579160200282015b82811115610a77578251829080519060200190610a67929190610a89565b5091602001919060010190610a49565b5b509050610a859190610b69565b5090565b828054600181600116156101000203166002900490600052602060002090601f016020900481019282601f10610aca57805160ff1916838001178555610af8565b82800160010185558215610af8579182015b82811115610af7578251825591602001919060010190610adc565b5b509050610b059190610b95565b5090565b828054828255906000526020600020908101928215610b58579160200282015b82811115610b57578251829080519060200190610b47929190610a89565b5091602001919060010190610b29565b5b509050610b659190610b69565b5090565b610b9291905b80821115610b8e5760008181610b859190610bba565b50600101610b6f565b5090565b90565b610bb791905b80821115610bb3576000816000905550600101610b9b565b5090565b90565b50805460018160011615610100020316600290046000825580601f10610be05750610bff565b601f016020900490600052602060002090810190610bfe9190610b95565b5b50565b6000610c0e8235611192565b905092915050565b600082601f8301121515610c2957600080fd5b8135610c3c610c37826110ad565b611080565b9150818183526020840193506020810190508360005b83811015610c825781358601610c688882610ca0565b845260208401935060208301925050600181019050610c52565b5050505092915050565b6000610c9882356111b2565b905092915050565b600082601f8301121515610cb357600080fd5b8135610cc6610cc1826110d5565b611080565b91508082526020830160208301858383011115610ce257600080fd5b610ced8382846111bc565b50505092915050565b600082601f8301121515610d0957600080fd5b8135610d1c610d1782611101565b611080565b91508082526020830160208301858383011115610d3857600080fd5b610d438382846111bc565b50505092915050565b60008060008060808587031215610d6257600080fd5b6000610d7087828801610c02565b945050602085013567ffffffffffffffff811115610d8d57600080fd5b610d9987828801610cf6565b935050604085013567ffffffffffffffff811115610db657600080fd5b610dc287828801610c16565b9250506060610dd387828801610c8c565b91505092959194509250565b600060208284031215610df157600080fd5b6000610dff84828501610c8c565b91505092915050565b60008060408385031215610e1b57600080fd5b6000610e2985828601610c8c565b925050602083013567ffffffffffffffff811115610e4657600080fd5b610e5285828601610c16565b9150509250929050565b610e6581611168565b82525050565b6000610e768261113a565b80845260208401935083602082028501610e8f8561112d565b60005b84811015610ec8578383038852610eaa838351610f0f565b9250610eb58261115b565b9150602088019750600181019050610e92565b508196508694505050505092915050565b6000610ee482611150565b808452610ef88160208601602086016111cb565b610f01816111fe565b602085010191505092915050565b6000610f1a82611145565b808452610f2e8160208601602086016111cb565b610f37816111fe565b602085010191505092915050565b6000601682527f53656e646572206e6f7420617574686f72697a65642e000000000000000000006020830152604082019050919050565b610f8581611188565b82525050565b6000608082019050610fa06000830187610e5c565b8181036020830152610fb28186610ed9565b90508181036040830152610fc68185610e6b565b9050610fd56060830184610f7c565b95945050505050565b6000606082019050610ff36000830186610e5c565b81810360208301526110058185610f0f565b90506110146040830184610f7c565b949350505050565b60006040820190506110316000830185610e5c565b61103e6020830184610f7c565b9392505050565b6000602082019050818103600083015261105e81610f45565b9050919050565b600060208201905061107a6000830184610f7c565b92915050565b6000604051905081810181811067ffffffffffffffff821117156110a357600080fd5b8060405250919050565b600067ffffffffffffffff8211156110c457600080fd5b602082029050602081019050919050565b600067ffffffffffffffff8211156110ec57600080fd5b601f19601f8301169050602081019050919050565b600067ffffffffffffffff82111561111857600080fd5b601f19601f8301169050602081019050919050565b6000602082019050919050565b600081519050919050565b600081519050919050565b600081519050919050565b6000602082019050919050565b600073ffffffffffffffffffffffffffffffffffffffff82169050919050565b6000819050919050565b600073ffffffffffffffffffffffffffffffffffffffff82169050919050565b6000819050919050565b82818337600083830152505050565b60005b838110156111e95780820151818401526020810190506111ce565b838111156111f8576000848401525b50505050565b6000601f19601f83011690509190505600a265627a7a723058204823dfa52515d4148bab081ac4310767962e26c204677ba54be71664892732046c6578706572696d656e74616cf50037",
  "source": "pragma solidity ^0.4.24;\npragma experimental ABIEncoderV2;\n\ncontract NoFilter {\n    address owner;\n\n    constructor() public {owner = msg.sender;}\n    \n    function kill() public { if (msg.sender == owner) selfdestruct(owner); }\n    \n    struct File {\n        address uploaderId;\n        string description;\n        string[] tags;\n        uint vote;\n    }\n    \n    \n    \n    event Vote(\n      address voter,        \n      bytes32 indexed ipfsHash,\n      uint vote\n    );\n    \n    event Alert(\n        address indexed uploaderId,\n        bytes32 indexed ipfsHash\n    );\n    \n    mapping(bytes32 => File) public details;\n\n    function upVote(bytes32 ipfsHash) public  returns (uint) {\n        details[ipfsHash].vote += 1;\n        emit Vote(msg.sender, ipfsHash, details[ipfsHash].vote);\n        return details[ipfsHash].vote;\n    }\n\n    function downVote(bytes32 ipfsHash) public  returns (uint) {\n        details[ipfsHash].vote -= 1;\n        emit Vote(msg.sender, ipfsHash, details[ipfsHash].vote);\n        return details[ipfsHash].vote;\n    }\n\n    function upload(address _uploaderId, string _description, string[] _tags, bytes32 ipfsHash ) public {\n        uint beginningVote = 1;\n        details[ipfsHash] = File(_uploaderId, _description, _tags, beginningVote);\n        // Item memory item = Item(_uploaderId, _description, _tags, beginningVote);\n        // details[ipfsHash] = item;\n        emit Alert(msg.sender, ipfsHash);\n    }\n    \n    function delist(bytes32 ipfsHash) public  returns (uint) {\n        require(msg.sender == owner, \"Sender not authorized.\");\n         /* should i be using this or a modifier like onlyOwner() { require(msg.sender==owner)_;} */\n        details[ipfsHash].vote -= 1000;\n        emit Vote(msg.sender, ipfsHash, details[ipfsHash].vote);\n        return details[ipfsHash].vote;\n    }\n    \n    function updateTags(bytes32 ipfsHash, string[] _tags) public {\n        //details[ipfsHash] = Item(details[ipfsHash].uploaderId, details[ipfsHash].description, _tags, details[ipfsHash].vote);\n        details[ipfsHash].tags = _tags;\n        emit Alert(msg.sender, ipfsHash);\n    }\n\n    function getDetails(bytes32 ipfsHash) public view returns (\n        address,\n        string,\n        string[],\n        uint\n    ) {\n        return (details[ipfsHash].uploaderId,\n            details[ipfsHash].description,\n            details[ipfsHash].tags,\n            details[ipfsHash].vote);\n    }\n    function() public payable { }\n}",
  "sourcePath": "/Users/yasin/noFilter/contracts/NoFilter.sol",
  "compiler": {
    "name": "solc",
    "version": "0.4.24+commit.e67f0147.Emscripten.clang"
  },
  "schemaVersion": "2.0.1",
  "updatedAt": "2018-08-18T08:48:12.766Z"
}