{
  "contractName": "NoFilter",
  "abi": [
    {
      "constant": true,
      "inputs": [
        {
          "name": "",
          "type": "bytes32"
        }
      ],
      "name": "details",
      "outputs": [
        {
          "name": "ownerId",
          "type": "address"
        },
        {
          "name": "description",
          "type": "string"
        }
      ],
      "payable": false,
      "stateMutability": "view",
      "type": "function"
    },
    {
      "anonymous": false,
      "inputs": [
        {
          "indexed": true,
          "name": "owner",
          "type": "address"
        },
        {
          "indexed": true,
          "name": "_item",
          "type": "bytes32"
        }
      ],
      "name": "Alert",
      "type": "event"
    },
    {
      "constant": false,
      "inputs": [
        {
          "name": "_ownerId",
          "type": "address"
        },
        {
          "name": "_description",
          "type": "string"
        },
        {
          "name": "_tags",
          "type": "string[]"
        },
        {
          "name": "_item",
          "type": "bytes32"
        }
      ],
      "name": "upload",
      "outputs": [],
      "payable": false,
      "stateMutability": "nonpayable",
      "type": "function"
    }
  ],
  "bytecode": "0x608060405234801561001057600080fd5b50610835806100206000396000f30060806040526004361061004c576000357c0100000000000000000000000000000000000000000000000000000000900463ffffffff1680636605347d14610051578063982b48d11461007a575b600080fd5b34801561005d57600080fd5b5061007860048036036100739190810190610575565b6100b8565b005b34801561008657600080fd5b506100a1600480360361009c9190810190610608565b6101d6565b6040516100af929190610676565b60405180910390f35b6060604051908101604052808573ffffffffffffffffffffffffffffffffffffffff16815260200184815260200183815250600080836000191660001916815260200190815260200160002060008201518160000160006101000a81548173ffffffffffffffffffffffffffffffffffffffff021916908373ffffffffffffffffffffffffffffffffffffffff16021790555060208201518160010190805190602001906101679291906102b2565b506040820151816002019080519060200190610184929190610332565b5090505080600019163373ffffffffffffffffffffffffffffffffffffffff167f431202dc4cf9ec5cba6a79a9ab341db3ca17c2182dc52584b2558999eecd83b060405160405180910390a350505050565b60006020528060005260406000206000915090508060000160009054906101000a900473ffffffffffffffffffffffffffffffffffffffff1690806001018054600181600116156101000203166002900480601f0160208091040260200160405190810160405280929190818152602001828054600181600116156101000203166002900480156102a85780601f1061027d576101008083540402835291602001916102a8565b820191906000526020600020905b81548152906001019060200180831161028b57829003601f168201915b5050505050905082565b828054600181600116156101000203166002900490600052602060002090601f016020900481019282601f106102f357805160ff1916838001178555610321565b82800160010185558215610321579182015b82811115610320578251825591602001919060010190610305565b5b50905061032e9190610392565b5090565b828054828255906000526020600020908101928215610381579160200282015b828111156103805782518290805190602001906103709291906102b2565b5091602001919060010190610352565b5b50905061038e91906103b7565b5090565b6103b491905b808211156103b0576000816000905550600101610398565b5090565b90565b6103e091905b808211156103dc57600081816103d391906103e3565b506001016103bd565b5090565b90565b50805460018160011615610100020316600290046000825580601f106104095750610428565b601f0160209004906000526020600020908101906104279190610392565b5b50565b6000610437823561077e565b905092915050565b600082601f830112151561045257600080fd5b8135610465610460826106d3565b6106a6565b9150818183526020840193506020810190508360005b838110156104ab578135860161049188826104c9565b84526020840193506020830192505060018101905061047b565b5050505092915050565b60006104c1823561079e565b905092915050565b600082601f83011215156104dc57600080fd5b81356104ef6104ea826106fb565b6106a6565b9150808252602083016020830185838301111561050b57600080fd5b6105168382846107a8565b50505092915050565b600082601f830112151561053257600080fd5b813561054561054082610727565b6106a6565b9150808252602083016020830185838301111561056157600080fd5b61056c8382846107a8565b50505092915050565b6000806000806080858703121561058b57600080fd5b60006105998782880161042b565b945050602085013567ffffffffffffffff8111156105b657600080fd5b6105c28782880161051f565b935050604085013567ffffffffffffffff8111156105df57600080fd5b6105eb8782880161043f565b92505060606105fc878288016104b5565b91505092959194509250565b60006020828403121561061a57600080fd5b6000610628848285016104b5565b91505092915050565b61063a8161075e565b82525050565b600061064b82610753565b80845261065f8160208601602086016107b7565b610668816107ea565b602085010191505092915050565b600060408201905061068b6000830185610631565b818103602083015261069d8184610640565b90509392505050565b6000604051905081810181811067ffffffffffffffff821117156106c957600080fd5b8060405250919050565b600067ffffffffffffffff8211156106ea57600080fd5b602082029050602081019050919050565b600067ffffffffffffffff82111561071257600080fd5b601f19601f8301169050602081019050919050565b600067ffffffffffffffff82111561073e57600080fd5b601f19601f8301169050602081019050919050565b600081519050919050565b600073ffffffffffffffffffffffffffffffffffffffff82169050919050565b600073ffffffffffffffffffffffffffffffffffffffff82169050919050565b6000819050919050565b82818337600083830152505050565b60005b838110156107d55780820151818401526020810190506107ba565b838111156107e4576000848401525b50505050565b6000601f19601f83011690509190505600a265627a7a72305820fb3b27febd97dacacfbd622d022ec7c60ddbabd532a7624ac54adc723ff89b2e6c6578706572696d656e74616cf50037",
  "source": "pragma solidity 0.4.24;\npragma experimental ABIEncoderV2;\n\ncontract NoFilter {\n    struct Item {\n        address ownerId;\n        string description;\n        string[] tags;\n    }\n  \n    event Alert(\n        address indexed owner,\n        bytes32 indexed _item\n    );\n    \n    mapping(bytes32 => Item) public details;\n    \n    function upload(address _ownerId, string _description, string[] _tags, bytes32 _item ) public {\n        details[_item] = Item(_ownerId, _description, _tags);\n        emit Alert(msg.sender, _item);\n    }\n    \n\n}",
  "sourcePath": "/Users/yasin/noFilter/contracts/nofilter.sol",
  "compiler": {
    "name": "solc",
    "version": "0.4.24+commit.e67f0147.Emscripten.clang"
  },
  "schemaVersion": "2.0.1",
  "updatedAt": "2018-08-12T07:59:11.133Z"
}