{
  "contractName": "NoFilter",
  "abi": [
    {
      "constant": true,
      "inputs": [],
      "name": "owner",
      "outputs": [
        {
          "name": "",
          "type": "address"
        }
      ],
      "payable": false,
      "stateMutability": "view",
      "type": "function"
    },
    {
      "constant": true,
      "inputs": [
        {
          "name": "",
          "type": "bytes32"
        }
      ],
      "name": "details",
      "outputs": [
        {
          "name": "uploaderId",
          "type": "address"
        },
        {
          "name": "description",
          "type": "string"
        },
        {
          "name": "vote",
          "type": "int256"
        }
      ],
      "payable": false,
      "stateMutability": "view",
      "type": "function"
    },
    {
      "inputs": [],
      "payable": false,
      "stateMutability": "nonpayable",
      "type": "constructor"
    },
    {
      "payable": true,
      "stateMutability": "payable",
      "type": "fallback"
    },
    {
      "anonymous": false,
      "inputs": [
        {
          "indexed": false,
          "name": "voter",
          "type": "address"
        },
        {
          "indexed": true,
          "name": "ipfsHash",
          "type": "bytes32"
        },
        {
          "indexed": false,
          "name": "vote",
          "type": "int256"
        }
      ],
      "name": "Vote",
      "type": "event"
    },
    {
      "anonymous": false,
      "inputs": [
        {
          "indexed": true,
          "name": "uploaderId",
          "type": "address"
        },
        {
          "indexed": true,
          "name": "ipfsHash",
          "type": "bytes32"
        }
      ],
      "name": "Alert",
      "type": "event"
    },
    {
      "constant": false,
      "inputs": [],
      "name": "kill",
      "outputs": [],
      "payable": false,
      "stateMutability": "nonpayable",
      "type": "function"
    },
    {
      "constant": false,
      "inputs": [
        {
          "name": "ipfsHash",
          "type": "bytes32"
        }
      ],
      "name": "upVote",
      "outputs": [
        {
          "name": "",
          "type": "int256"
        }
      ],
      "payable": false,
      "stateMutability": "nonpayable",
      "type": "function"
    },
    {
      "constant": false,
      "inputs": [
        {
          "name": "ipfsHash",
          "type": "bytes32"
        }
      ],
      "name": "downVote",
      "outputs": [
        {
          "name": "",
          "type": "int256"
        }
      ],
      "payable": false,
      "stateMutability": "nonpayable",
      "type": "function"
    },
    {
      "constant": false,
      "inputs": [
        {
          "name": "_uploaderId",
          "type": "address"
        },
        {
          "name": "_description",
          "type": "string"
        },
        {
          "name": "_tags",
          "type": "bytes20[10]"
        },
        {
          "name": "ipfsHash",
          "type": "bytes32"
        }
      ],
      "name": "upload",
      "outputs": [],
      "payable": false,
      "stateMutability": "nonpayable",
      "type": "function"
    },
    {
      "constant": false,
      "inputs": [
        {
          "name": "ipfsHash",
          "type": "bytes32"
        }
      ],
      "name": "delist",
      "outputs": [
        {
          "name": "",
          "type": "int256"
        }
      ],
      "payable": false,
      "stateMutability": "nonpayable",
      "type": "function"
    },
    {
      "constant": false,
      "inputs": [
        {
          "name": "ipfsHash",
          "type": "bytes32"
        },
        {
          "name": "_tags",
          "type": "bytes20[10]"
        }
      ],
      "name": "updateTags",
      "outputs": [
        {
          "name": "",
          "type": "bytes20[10]"
        }
      ],
      "payable": false,
      "stateMutability": "nonpayable",
      "type": "function"
    },
    {
      "constant": true,
      "inputs": [
        {
          "name": "ipfsHash",
          "type": "bytes32"
        }
      ],
      "name": "getDetails",
      "outputs": [
        {
          "name": "",
          "type": "address"
        },
        {
          "name": "",
          "type": "string"
        },
        {
          "name": "",
          "type": "bytes20[10]"
        },
        {
          "name": "",
          "type": "int256"
        }
      ],
      "payable": false,
      "stateMutability": "view",
      "type": "function"
    }
  ],
  "bytecode": "0x608060405234801561001057600080fd5b50336000806101000a81548173ffffffffffffffffffffffffffffffffffffffff021916908373ffffffffffffffffffffffffffffffffffffffff1602179055506112f4806100606000396000f300608060405260043610610099576000357c0100000000000000000000000000000000000000000000000000000000900463ffffffff1680632d0a85aa1461009b57806341c0e1b5146100d857806366c112fc146100ef5780638da5cb5b1461012c5780639339a9cf146101575780639348c30d14610194578063982b48d1146101d1578063984bc700146102105780639d1f1a8414610250575b005b3480156100a757600080fd5b506100c260048036036100bd9190810190610e60565b610279565b6040516100cf91906110cd565b60405180910390f35b3480156100e457600080fd5b506100ed6103bc565b005b3480156100fb57600080fd5b5061011660048036036101119190810190610e60565b610487565b60405161012391906110cd565b60405180910390f35b34801561013857600080fd5b50610141610537565b60405161014e9190610fe1565b60405180910390f35b34801561016357600080fd5b5061017e60048036036101799190810190610e89565b61055c565b60405161018b91906110b1565b60405180910390f35b3480156101a057600080fd5b506101bb60048036036101b69190810190610e60565b610664565b6040516101c891906110cd565b60405180910390f35b3480156101dd57600080fd5b506101f860048036036101f39190810190610e60565b610714565b60405161020793929190611073565b60405180910390f35b34801561021c57600080fd5b5061023760048036036102329190810190610e60565b6107f6565b6040516102479493929190611025565b60405180910390f35b34801561025c57600080fd5b5061027760048036036102729190810190610de3565b6109b0565b005b60008060009054906101000a900473ffffffffffffffffffffffffffffffffffffffff1673ffffffffffffffffffffffffffffffffffffffff163373ffffffffffffffffffffffffffffffffffffffff1614151561030c576040517f08c379a0000000000000000000000000000000000000000000000000000000008152600401610303906110e8565b60405180910390fd5b6103e8600160008460001916600019168152602001908152602001600020600c016000828254039250508190555081600019167fd2a9520f93bcb126d294c414716471f2b8828e071b68a5a1b20679f1bfdbfa6c33600160008660001916600019168152602001908152602001600020600c015460405161038e929190610ffc565b60405180910390a2600160008360001916600019168152602001908152602001600020600c01549050919050565b6000809054906101000a900473ffffffffffffffffffffffffffffffffffffffff1673ffffffffffffffffffffffffffffffffffffffff163373ffffffffffffffffffffffffffffffffffffffff1614151561044d576040517f08c379a0000000000000000000000000000000000000000000000000000000008152600401610444906110e8565b60405180910390fd5b6000809054906101000a900473ffffffffffffffffffffffffffffffffffffffff1673ffffffffffffffffffffffffffffffffffffffff16ff5b600060018060008460001916600019168152602001908152602001600020600c016000828254019250508190555081600019167fd2a9520f93bcb126d294c414716471f2b8828e071b68a5a1b20679f1bfdbfa6c33600160008660001916600019168152602001908152602001600020600c0154604051610509929190610ffc565b60405180910390a2600160008360001916600019168152602001908152602001600020600c01549050919050565b6000809054906101000a900473ffffffffffffffffffffffffffffffffffffffff1681565b610564610ae1565b8160016000856000191660001916815260200190815260200160002060020190600a610591929190610b05565b5082600019163373ffffffffffffffffffffffffffffffffffffffff167f431202dc4cf9ec5cba6a79a9ab341db3ca17c2182dc52584b2558999eecd83b060405160405180910390a3600160008460001916600019168152602001908152602001600020600201600a806020026040519081016040528092919082600a8015610657576020028201915b8160009054906101000a90046c01000000000000000000000000026bffffffffffffffffffffffff19168152602001906001019080831161061b575b5050505050905092915050565b600060018060008460001916600019168152602001908152602001600020600c016000828254039250508190555081600019167fd2a9520f93bcb126d294c414716471f2b8828e071b68a5a1b20679f1bfdbfa6c33600160008660001916600019168152602001908152602001600020600c01546040516106e6929190610ffc565b60405180910390a2600160008360001916600019168152602001908152602001600020600c01549050919050565b60016020528060005260406000206000915090508060000160009054906101000a900473ffffffffffffffffffffffffffffffffffffffff1690806001018054600181600116156101000203166002900480601f0160208091040260200160405190810160405280929190818152602001828054600181600116156101000203166002900480156107e65780601f106107bb576101008083540402835291602001916107e6565b820191906000526020600020905b8154815290600101906020018083116107c957829003601f168201915b50505050509080600c0154905083565b60006060610802610ae1565b600060016000866000191660001916815260200190815260200160002060000160009054906101000a900473ffffffffffffffffffffffffffffffffffffffff16600160008760001916600019168152602001908152602001600020600101600160008860001916600019168152602001908152602001600020600201600160008960001916600019168152602001908152602001600020600c0154828054600181600116156101000203166002900480601f0160208091040260200160405190810160405280929190818152602001828054600181600116156101000203166002900480156109335780601f1061090857610100808354040283529160200191610933565b820191906000526020600020905b81548152906001019060200180831161091657829003601f168201915b5050505050925081600a806020026040519081016040528092919082600a801561099a576020028201915b8160009054906101000a90046c01000000000000000000000000026bffffffffffffffffffffffff19168152602001906001019080831161095e575b5050505050915093509350935093509193509193565b6000600190506080604051908101604052808673ffffffffffffffffffffffffffffffffffffffff1681526020018581526020018481526020018281525060016000846000191660001916815260200190815260200160002060008201518160000160006101000a81548173ffffffffffffffffffffffffffffffffffffffff021916908373ffffffffffffffffffffffffffffffffffffffff1602179055506020820151816001019080519060200190610a6c929190610b7c565b5060408201518160020190600a610a84929190610bfc565b50606082015181600c015590505081600019163373ffffffffffffffffffffffffffffffffffffffff167f431202dc4cf9ec5cba6a79a9ab341db3ca17c2182dc52584b2558999eecd83b060405160405180910390a35050505050565b61014060405190810160405280600a90602082028038833980820191505090505090565b82600a8101928215610b6b579160200282015b82811115610b6a5782518260006101000a81548173ffffffffffffffffffffffffffffffffffffffff02191690836c010000000000000000000000009004021790555091602001919060010190610b18565b5b509050610b789190610c73565b5090565b828054600181600116156101000203166002900490600052602060002090601f016020900481019282601f10610bbd57805160ff1916838001178555610beb565b82800160010185558215610beb579182015b82811115610bea578251825591602001919060010190610bcf565b5b509050610bf89190610cb6565b5090565b82600a8101928215610c62579160200282015b82811115610c615782518260006101000a81548173ffffffffffffffffffffffffffffffffffffffff02191690836c010000000000000000000000009004021790555091602001919060010190610c0f565b5b509050610c6f9190610c73565b5090565b610cb391905b80821115610caf57600081816101000a81549073ffffffffffffffffffffffffffffffffffffffff021916905550600101610c79565b5090565b90565b610cd891905b80821115610cd4576000816000905550600101610cbc565b5090565b90565b6000610ce78235611211565b905092915050565b600082601f8301121515610d0257600080fd5b600a610d15610d1082611135565b611108565b91508183856020840282011115610d2b57600080fd5b60005b83811015610d5b5781610d418882610d65565b845260208401935060208301925050600181019050610d2e565b5050505092915050565b6000610d718235611231565b905092915050565b6000610d85823561125d565b905092915050565b600082601f8301121515610da057600080fd5b8135610db3610dae82611157565b611108565b91508082526020830160208301858383011115610dcf57600080fd5b610dda838284611267565b50505092915050565b6000806000806101a08587031215610dfa57600080fd5b6000610e0887828801610cdb565b945050602085013567ffffffffffffffff811115610e2557600080fd5b610e3187828801610d8d565b9350506040610e4287828801610cef565b925050610180610e5487828801610d79565b91505092959194509250565b600060208284031215610e7257600080fd5b6000610e8084828501610d79565b91505092915050565b6000806101608385031215610e9d57600080fd5b6000610eab85828601610d79565b9250506020610ebc85828601610cef565b9150509250929050565b610ecf816111bb565b82525050565b610ede8161118d565b610ee782611183565b60005b82811015610f1957610efd858351610f20565b610f06826111ae565b9150602085019450600181019050610eea565b5050505050565b610f29816111db565b82525050565b610f3881611207565b82525050565b6000610f49826111a3565b808452610f5d816020860160208601611276565b610f66816112a9565b602085010191505092915050565b6000610f7f82611198565b808452610f93816020860160208601611276565b610f9c816112a9565b602085010191505092915050565b6000601682527f53656e646572206e6f7420617574686f72697a65642e000000000000000000006020830152604082019050919050565b6000602082019050610ff66000830184610ec6565b92915050565b60006040820190506110116000830185610ec6565b61101e6020830184610f2f565b9392505050565b60006101a08201905061103b6000830187610ec6565b818103602083015261104d8186610f3e565b905061105c6040830185610ed5565b61106a610180830184610f2f565b95945050505050565b60006060820190506110886000830186610ec6565b818103602083015261109a8185610f74565b90506110a96040830184610f2f565b949350505050565b6000610140820190506110c76000830184610ed5565b92915050565b60006020820190506110e26000830184610f2f565b92915050565b6000602082019050818103600083015261110181610faa565b9050919050565b6000604051905081810181811067ffffffffffffffff8211171561112b57600080fd5b8060405250919050565b600067ffffffffffffffff82111561114c57600080fd5b602082029050919050565b600067ffffffffffffffff82111561116e57600080fd5b601f19601f8301169050602081019050919050565b6000819050919050565b6000600a9050919050565b600081519050919050565b600081519050919050565b6000602082019050919050565b600073ffffffffffffffffffffffffffffffffffffffff82169050919050565b60007fffffffffffffffffffffffffffffffffffffffff00000000000000000000000082169050919050565b6000819050919050565b600073ffffffffffffffffffffffffffffffffffffffff82169050919050565b60007fffffffffffffffffffffffffffffffffffffffff00000000000000000000000082169050919050565b6000819050919050565b82818337600083830152505050565b60005b83811015611294578082015181840152602081019050611279565b838111156112a3576000848401525b50505050565b6000601f19601f83011690509190505600a265627a7a723058207987546a664169648b9971edb4ac07e31e0b578c08b222ceb2ebae567cacd12e6c6578706572696d656e74616cf50037",
  "source": "pragma solidity ^0.4.24;\npragma experimental ABIEncoderV2;\n\ncontract NoFilter {\n    address public owner;\n\n    constructor() public {owner = msg.sender;}\n    \n    function kill() public {\n        require(msg.sender == owner, \"Sender not authorized.\");\n        selfdestruct(owner);\n    }\n    \n\n    struct File {\n        address uploaderId;\n        string description;\n        bytes20[10] tags;\n        int vote;\n    }\n    \n    \n    \n    event Vote(address voter, bytes32 indexed ipfsHash, int vote); \n    \n    event Alert(address indexed uploaderId, bytes32 indexed ipfsHash);\n    \n    mapping(bytes32 => File) public details;\n\n    function upVote(bytes32 ipfsHash) public  returns (int) {\n        details[ipfsHash].vote += 1;\n        emit Vote(msg.sender, ipfsHash, details[ipfsHash].vote);\n        return details[ipfsHash].vote;\n    }\n\n    function downVote(bytes32 ipfsHash) public  returns (int) {\n        details[ipfsHash].vote -= 1;\n        emit Vote(msg.sender, ipfsHash, details[ipfsHash].vote);\n        return details[ipfsHash].vote;\n    }\n\n    function upload(address _uploaderId, string _description, bytes20[10] _tags, bytes32 ipfsHash ) public {\n        int beginningVote = 1;\n        details[ipfsHash] = File(_uploaderId, _description, _tags, beginningVote);\n        emit Alert(msg.sender, ipfsHash);\n    }\n    \n    function delist(bytes32 ipfsHash) public  returns (int) {\n        require(msg.sender == owner, \"Sender not authorized.\");\n       \n        details[ipfsHash].vote -= 1000;\n        emit Vote(msg.sender, ipfsHash, details[ipfsHash].vote);\n        return details[ipfsHash].vote;\n    }\n    \n    function updateTags(bytes32 ipfsHash, bytes20[10] _tags) public returns (bytes20[10]){\n        \n        details[ipfsHash].tags = _tags;\n        emit Alert(msg.sender, ipfsHash);\n        return details[ipfsHash].tags;\n    }\n\n    function getDetails(bytes32 ipfsHash) public view returns (\n        address,\n        string,\n        bytes20[10],\n        int\n    ) {\n        return (details[ipfsHash].uploaderId,\n            details[ipfsHash].description,\n            details[ipfsHash].tags,\n            details[ipfsHash].vote);\n    }\n    function() public payable { }\n}",
  "sourcePath": "/Users/yasin/noFilter/contracts/NoFilter.sol",
  "compiler": {
    "name": "solc",
    "version": "0.4.24+commit.e67f0147.Emscripten.clang"
  },
  "schemaVersion": "2.0.1",
  "updatedAt": "2018-08-23T23:51:02.370Z"
}