{
  "contractName": "NoFilter",
  "abi": [
    {
      "constant": true,
      "inputs": [],
      "name": "owner",
      "outputs": [
        {
          "name": "",
          "type": "address"
        }
      ],
      "payable": false,
      "stateMutability": "view",
      "type": "function"
    },
    {
      "constant": true,
      "inputs": [
        {
          "name": "",
          "type": "bytes32"
        }
      ],
      "name": "details",
      "outputs": [
        {
          "name": "uploaderId",
          "type": "address"
        },
        {
          "name": "description",
          "type": "string"
        },
        {
          "name": "vote",
          "type": "uint256"
        }
      ],
      "payable": false,
      "stateMutability": "view",
      "type": "function"
    },
    {
      "inputs": [],
      "payable": false,
      "stateMutability": "nonpayable",
      "type": "constructor"
    },
    {
      "payable": true,
      "stateMutability": "payable",
      "type": "fallback"
    },
    {
      "anonymous": false,
      "inputs": [
        {
          "indexed": false,
          "name": "voter",
          "type": "address"
        },
        {
          "indexed": true,
          "name": "ipfsHash",
          "type": "bytes32"
        },
        {
          "indexed": false,
          "name": "vote",
          "type": "uint256"
        }
      ],
      "name": "Vote",
      "type": "event"
    },
    {
      "anonymous": false,
      "inputs": [
        {
          "indexed": true,
          "name": "uploaderId",
          "type": "address"
        },
        {
          "indexed": true,
          "name": "ipfsHash",
          "type": "bytes32"
        }
      ],
      "name": "Alert",
      "type": "event"
    },
    {
      "constant": false,
      "inputs": [],
      "name": "kill",
      "outputs": [],
      "payable": false,
      "stateMutability": "nonpayable",
      "type": "function"
    },
    {
      "constant": false,
      "inputs": [
        {
          "name": "ipfsHash",
          "type": "bytes32"
        }
      ],
      "name": "upVote",
      "outputs": [
        {
          "name": "",
          "type": "uint256"
        }
      ],
      "payable": false,
      "stateMutability": "nonpayable",
      "type": "function"
    },
    {
      "constant": false,
      "inputs": [
        {
          "name": "ipfsHash",
          "type": "bytes32"
        }
      ],
      "name": "downVote",
      "outputs": [
        {
          "name": "",
          "type": "uint256"
        }
      ],
      "payable": false,
      "stateMutability": "nonpayable",
      "type": "function"
    },
    {
      "constant": false,
      "inputs": [
        {
          "name": "_uploaderId",
          "type": "address"
        },
        {
          "name": "_description",
          "type": "string"
        },
        {
          "name": "_tags",
          "type": "string[]"
        },
        {
          "name": "ipfsHash",
          "type": "bytes32"
        }
      ],
      "name": "upload",
      "outputs": [
        {
          "name": "",
          "type": "uint256"
        }
      ],
      "payable": false,
      "stateMutability": "nonpayable",
      "type": "function"
    },
    {
      "constant": false,
      "inputs": [
        {
          "name": "ipfsHash",
          "type": "bytes32"
        }
      ],
      "name": "delist",
      "outputs": [
        {
          "name": "",
          "type": "uint256"
        }
      ],
      "payable": false,
      "stateMutability": "nonpayable",
      "type": "function"
    },
    {
      "constant": false,
      "inputs": [
        {
          "name": "ipfsHash",
          "type": "bytes32"
        },
        {
          "name": "_tags",
          "type": "string[]"
        }
      ],
      "name": "updateTags",
      "outputs": [],
      "payable": false,
      "stateMutability": "nonpayable",
      "type": "function"
    },
    {
      "constant": true,
      "inputs": [
        {
          "name": "ipfsHash",
          "type": "bytes32"
        }
      ],
      "name": "getDetails",
      "outputs": [
        {
          "name": "",
          "type": "address"
        },
        {
          "name": "",
          "type": "string"
        },
        {
          "name": "",
          "type": "string[]"
        },
        {
          "name": "",
          "type": "uint256"
        }
      ],
      "payable": false,
      "stateMutability": "view",
      "type": "function"
    }
  ],
  "bytecode": "0x608060405234801561001057600080fd5b50336000806101000a81548173ffffffffffffffffffffffffffffffffffffffff021916908373ffffffffffffffffffffffffffffffffffffffff160217905550611314806100606000396000f300608060405260043610610099576000357c0100000000000000000000000000000000000000000000000000000000900463ffffffff168063288554711461009b5780632d0a85aa146100c457806341c0e1b5146101015780636605347d1461011857806366c112fc146101555780638da5cb5b146101925780639348c30d146101bd578063982b48d1146101fa578063984bc70014610239575b005b3480156100a757600080fd5b506100c260048036036100bd9190810190610eb8565b610279565b005b3480156100d057600080fd5b506100eb60048036036100e69190810190610e8f565b6102f8565b6040516100f89190611130565b60405180910390f35b34801561010d57600080fd5b5061011661043b565b005b34801561012457600080fd5b5061013f600480360361013a9190810190610dfc565b610506565b60405161014c9190611130565b60405180910390f35b34801561016157600080fd5b5061017c60048036036101779190810190610e8f565b610643565b6040516101899190611130565b60405180910390f35b34801561019e57600080fd5b506101a76106f3565b6040516101b4919061103b565b60405180910390f35b3480156101c957600080fd5b506101e460048036036101df9190810190610e8f565b610718565b6040516101f19190611130565b60405180910390f35b34801561020657600080fd5b50610221600480360361021c9190810190610e8f565b6107c8565b604051610230939291906110a9565b60405180910390f35b34801561024557600080fd5b50610260600480360361025b9190810190610e8f565b6108aa565b6040516102709493929190611056565b60405180910390f35b8060016000846000191660001916815260200190815260200160002060020190805190602001906102ab929190610ad9565b5081600019163373ffffffffffffffffffffffffffffffffffffffff167f431202dc4cf9ec5cba6a79a9ab341db3ca17c2182dc52584b2558999eecd83b060405160405180910390a35050565b60008060009054906101000a900473ffffffffffffffffffffffffffffffffffffffff1673ffffffffffffffffffffffffffffffffffffffff163373ffffffffffffffffffffffffffffffffffffffff1614151561038b576040517f08c379a000000000000000000000000000000000000000000000000000000000815260040161038290611110565b60405180910390fd5b6103e86001600084600019166000191681526020019081526020016000206003016000828254039250508190555081600019167f7abfc9285853378c85b200bd11aff679dc29b7ce51ef85ed184e149801dadd06336001600086600019166000191681526020019081526020016000206003015460405161040d9291906110e7565b60405180910390a2600160008360001916600019168152602001908152602001600020600301549050919050565b6000809054906101000a900473ffffffffffffffffffffffffffffffffffffffff1673ffffffffffffffffffffffffffffffffffffffff163373ffffffffffffffffffffffffffffffffffffffff161415156104cc576040517f08c379a00000000000000000000000000000000000000000000000000000000081526004016104c390611110565b60405180910390fd5b6000809054906101000a900473ffffffffffffffffffffffffffffffffffffffff1673ffffffffffffffffffffffffffffffffffffffff16ff5b600080600190506080604051908101604052808773ffffffffffffffffffffffffffffffffffffffff1681526020018681526020018581526020018281525060016000856000191660001916815260200190815260200160002060008201518160000160006101000a81548173ffffffffffffffffffffffffffffffffffffffff021916908373ffffffffffffffffffffffffffffffffffffffff16021790555060208201518160010190805190602001906105c3929190610b39565b5060408201518160020190805190602001906105e0929190610bb9565b506060820151816003015590505082600019163373ffffffffffffffffffffffffffffffffffffffff167f431202dc4cf9ec5cba6a79a9ab341db3ca17c2182dc52584b2558999eecd83b060405160405180910390a36001915050949350505050565b6000600180600084600019166000191681526020019081526020016000206003016000828254019250508190555081600019167f7abfc9285853378c85b200bd11aff679dc29b7ce51ef85ed184e149801dadd0633600160008660001916600019168152602001908152602001600020600301546040516106c59291906110e7565b60405180910390a2600160008360001916600019168152602001908152602001600020600301549050919050565b6000809054906101000a900473ffffffffffffffffffffffffffffffffffffffff1681565b6000600180600084600019166000191681526020019081526020016000206003016000828254039250508190555081600019167f7abfc9285853378c85b200bd11aff679dc29b7ce51ef85ed184e149801dadd06336001600086600019166000191681526020019081526020016000206003015460405161079a9291906110e7565b60405180910390a2600160008360001916600019168152602001908152602001600020600301549050919050565b60016020528060005260406000206000915090508060000160009054906101000a900473ffffffffffffffffffffffffffffffffffffffff1690806001018054600181600116156101000203166002900480601f01602080910402602001604051908101604052809291908181526020018280546001816001161561010002031660029004801561089a5780601f1061086f5761010080835404028352916020019161089a565b820191906000526020600020905b81548152906001019060200180831161087d57829003601f168201915b5050505050908060030154905083565b6000606080600060016000866000191660001916815260200190815260200160002060000160009054906101000a900473ffffffffffffffffffffffffffffffffffffffff1660016000876000191660001916815260200190815260200160002060010160016000886000191660001916815260200190815260200160002060020160016000896000191660001916815260200190815260200160002060030154828054600181600116156101000203166002900480601f0160208091040260200160405190810160405280929190818152602001828054600181600116156101000203166002900480156109e05780601f106109b5576101008083540402835291602001916109e0565b820191906000526020600020905b8154815290600101906020018083116109c357829003601f168201915b5050505050925081805480602002602001604051908101604052809291908181526020016000905b82821015610ac4578382906000526020600020018054600181600116156101000203166002900480601f016020809104026020016040519081016040528092919081815260200182805460018160011615610100020316600290048015610ab05780601f10610a8557610100808354040283529160200191610ab0565b820191906000526020600020905b815481529060010190602001808311610a9357829003601f168201915b505050505081526020019060010190610a08565b50505050915093509350935093509193509193565b828054828255906000526020600020908101928215610b28579160200282015b82811115610b27578251829080519060200190610b17929190610b39565b5091602001919060010190610af9565b5b509050610b359190610c19565b5090565b828054600181600116156101000203166002900490600052602060002090601f016020900481019282601f10610b7a57805160ff1916838001178555610ba8565b82800160010185558215610ba8579182015b82811115610ba7578251825591602001919060010190610b8c565b5b509050610bb59190610c45565b5090565b828054828255906000526020600020908101928215610c08579160200282015b82811115610c07578251829080519060200190610bf7929190610b39565b5091602001919060010190610bd9565b5b509050610c159190610c19565b5090565b610c4291905b80821115610c3e5760008181610c359190610c6a565b50600101610c1f565b5090565b90565b610c6791905b80821115610c63576000816000905550600101610c4b565b5090565b90565b50805460018160011615610100020316600290046000825580601f10610c905750610caf565b601f016020900490600052602060002090810190610cae9190610c45565b5b50565b6000610cbe823561125d565b905092915050565b600082601f8301121515610cd957600080fd5b8135610cec610ce782611178565b61114b565b9150818183526020840193506020810190508360005b83811015610d325781358601610d188882610d50565b845260208401935060208301925050600181019050610d02565b5050505092915050565b6000610d48823561127d565b905092915050565b600082601f8301121515610d6357600080fd5b8135610d76610d71826111a0565b61114b565b91508082526020830160208301858383011115610d9257600080fd5b610d9d838284611287565b50505092915050565b600082601f8301121515610db957600080fd5b8135610dcc610dc7826111cc565b61114b565b91508082526020830160208301858383011115610de857600080fd5b610df3838284611287565b50505092915050565b60008060008060808587031215610e1257600080fd5b6000610e2087828801610cb2565b945050602085013567ffffffffffffffff811115610e3d57600080fd5b610e4987828801610da6565b935050604085013567ffffffffffffffff811115610e6657600080fd5b610e7287828801610cc6565b9250506060610e8387828801610d3c565b91505092959194509250565b600060208284031215610ea157600080fd5b6000610eaf84828501610d3c565b91505092915050565b60008060408385031215610ecb57600080fd5b6000610ed985828601610d3c565b925050602083013567ffffffffffffffff811115610ef657600080fd5b610f0285828601610cc6565b9150509250929050565b610f1581611233565b82525050565b6000610f2682611205565b80845260208401935083602082028501610f3f856111f8565b60005b84811015610f78578383038852610f5a838351610fbf565b9250610f6582611226565b9150602088019750600181019050610f42565b508196508694505050505092915050565b6000610f948261121b565b808452610fa8816020860160208601611296565b610fb1816112c9565b602085010191505092915050565b6000610fca82611210565b808452610fde816020860160208601611296565b610fe7816112c9565b602085010191505092915050565b6000601682527f53656e646572206e6f7420617574686f72697a65642e000000000000000000006020830152604082019050919050565b61103581611253565b82525050565b60006020820190506110506000830184610f0c565b92915050565b600060808201905061106b6000830187610f0c565b818103602083015261107d8186610f89565b905081810360408301526110918185610f1b565b90506110a0606083018461102c565b95945050505050565b60006060820190506110be6000830186610f0c565b81810360208301526110d08185610fbf565b90506110df604083018461102c565b949350505050565b60006040820190506110fc6000830185610f0c565b611109602083018461102c565b9392505050565b6000602082019050818103600083015261112981610ff5565b9050919050565b6000602082019050611145600083018461102c565b92915050565b6000604051905081810181811067ffffffffffffffff8211171561116e57600080fd5b8060405250919050565b600067ffffffffffffffff82111561118f57600080fd5b602082029050602081019050919050565b600067ffffffffffffffff8211156111b757600080fd5b601f19601f8301169050602081019050919050565b600067ffffffffffffffff8211156111e357600080fd5b601f19601f8301169050602081019050919050565b6000602082019050919050565b600081519050919050565b600081519050919050565b600081519050919050565b6000602082019050919050565b600073ffffffffffffffffffffffffffffffffffffffff82169050919050565b6000819050919050565b600073ffffffffffffffffffffffffffffffffffffffff82169050919050565b6000819050919050565b82818337600083830152505050565b60005b838110156112b4578082015181840152602081019050611299565b838111156112c3576000848401525b50505050565b6000601f19601f83011690509190505600a265627a7a7230582073eac7d25ba5380803f3d16fe8c77f6a529e13c9e10682bf8e911d011666734c6c6578706572696d656e74616cf50037",
  "source": "pragma solidity ^0.4.24;\npragma experimental ABIEncoderV2;\n\ncontract NoFilter {\n    address public owner;\n\n    constructor() public {owner = msg.sender;}\n    \n    function kill() public {\n        require(msg.sender == owner, \"Sender not authorized.\");\n        selfdestruct(owner);\n    }\n    \n    struct File {\n        address uploaderId;\n        string description;\n        string[] tags;\n        uint vote;\n    }\n    \n    \n    \n    event Vote(address voter, bytes32 indexed ipfsHash, uint vote); \n    \n    event Alert(address indexed uploaderId, bytes32 indexed ipfsHash);\n    \n    mapping(bytes32 => File) public details;\n\n    function upVote(bytes32 ipfsHash) public  returns (uint) {\n        details[ipfsHash].vote += 1;\n        emit Vote(msg.sender, ipfsHash, details[ipfsHash].vote);\n        return details[ipfsHash].vote;\n    }\n\n    function downVote(bytes32 ipfsHash) public  returns (uint) {\n        details[ipfsHash].vote -= 1;\n        emit Vote(msg.sender, ipfsHash, details[ipfsHash].vote);\n        return details[ipfsHash].vote;\n    }\n\n    function upload(address _uploaderId, string _description, string[] _tags, bytes32 ipfsHash ) public returns (uint){\n        uint beginningVote = 1;\n        details[ipfsHash] = File(_uploaderId, _description, _tags, beginningVote);\n        emit Alert(msg.sender, ipfsHash);\n        return 1;\n    }\n    \n    function delist(bytes32 ipfsHash) public  returns (uint) {\n        require(msg.sender == owner, \"Sender not authorized.\");\n       \n        details[ipfsHash].vote -= 1000;\n        emit Vote(msg.sender, ipfsHash, details[ipfsHash].vote);\n        return details[ipfsHash].vote;\n    }\n    \n    function updateTags(bytes32 ipfsHash, string[] _tags) public {\n        \n        details[ipfsHash].tags = _tags;\n        emit Alert(msg.sender, ipfsHash);\n    }\n\n    function getDetails(bytes32 ipfsHash) public view returns (\n        address,\n        string,\n        string[],\n        uint\n    ) {\n        return (details[ipfsHash].uploaderId,\n            details[ipfsHash].description,\n            details[ipfsHash].tags,\n            details[ipfsHash].vote);\n    }\n    function() public payable { }\n}",
  "sourcePath": "/Users/yasin/noFilter/contracts/NoFilter.sol",
  "compiler": {
    "name": "solc",
    "version": "0.4.24+commit.e67f0147.Emscripten.clang"
  },
  "schemaVersion": "2.0.1",
  "updatedAt": "2018-08-22T02:12:05.582Z"
}