{
  "contractName": "NoFilter",
  "abi": [
    {
      "constant": true,
      "inputs": [],
      "name": "owner",
      "outputs": [
        {
          "name": "",
          "type": "address"
        }
      ],
      "payable": false,
      "stateMutability": "view",
      "type": "function"
    },
    {
      "constant": true,
      "inputs": [
        {
          "name": "",
          "type": "bytes32"
        }
      ],
      "name": "details",
      "outputs": [
        {
          "name": "uploaderId",
          "type": "address"
        },
        {
          "name": "description",
          "type": "string"
        },
        {
          "name": "vote",
          "type": "uint256"
        }
      ],
      "payable": false,
      "stateMutability": "view",
      "type": "function"
    },
    {
      "inputs": [],
      "payable": false,
      "stateMutability": "nonpayable",
      "type": "constructor"
    },
    {
      "payable": true,
      "stateMutability": "payable",
      "type": "fallback"
    },
    {
      "anonymous": false,
      "inputs": [
        {
          "indexed": false,
          "name": "voter",
          "type": "address"
        },
        {
          "indexed": true,
          "name": "ipfsHash",
          "type": "bytes32"
        },
        {
          "indexed": false,
          "name": "vote",
          "type": "uint256"
        }
      ],
      "name": "Vote",
      "type": "event"
    },
    {
      "anonymous": false,
      "inputs": [
        {
          "indexed": true,
          "name": "uploaderId",
          "type": "address"
        },
        {
          "indexed": true,
          "name": "ipfsHash",
          "type": "bytes32"
        }
      ],
      "name": "Alert",
      "type": "event"
    },
    {
      "constant": false,
      "inputs": [],
      "name": "kill",
      "outputs": [],
      "payable": false,
      "stateMutability": "nonpayable",
      "type": "function"
    },
    {
      "constant": false,
      "inputs": [
        {
          "name": "ipfsHash",
          "type": "bytes32"
        }
      ],
      "name": "upVote",
      "outputs": [
        {
          "name": "",
          "type": "uint256"
        }
      ],
      "payable": false,
      "stateMutability": "nonpayable",
      "type": "function"
    },
    {
      "constant": false,
      "inputs": [
        {
          "name": "ipfsHash",
          "type": "bytes32"
        }
      ],
      "name": "downVote",
      "outputs": [
        {
          "name": "",
          "type": "uint256"
        }
      ],
      "payable": false,
      "stateMutability": "nonpayable",
      "type": "function"
    },
    {
      "constant": false,
      "inputs": [
        {
          "name": "_uploaderId",
          "type": "address"
        },
        {
          "name": "_description",
          "type": "string"
        },
        {
          "name": "_tags",
          "type": "string[]"
        },
        {
          "name": "ipfsHash",
          "type": "bytes32"
        }
      ],
      "name": "upload",
      "outputs": [],
      "payable": false,
      "stateMutability": "nonpayable",
      "type": "function"
    },
    {
      "constant": false,
      "inputs": [
        {
          "name": "ipfsHash",
          "type": "bytes32"
        }
      ],
      "name": "delist",
      "outputs": [
        {
          "name": "",
          "type": "uint256"
        }
      ],
      "payable": false,
      "stateMutability": "nonpayable",
      "type": "function"
    },
    {
      "constant": false,
      "inputs": [
        {
          "name": "ipfsHash",
          "type": "bytes32"
        },
        {
          "name": "_tags",
          "type": "string[]"
        }
      ],
      "name": "updateTags",
      "outputs": [],
      "payable": false,
      "stateMutability": "nonpayable",
      "type": "function"
    },
    {
      "constant": true,
      "inputs": [
        {
          "name": "ipfsHash",
          "type": "bytes32"
        }
      ],
      "name": "getDetails",
      "outputs": [
        {
          "name": "",
          "type": "address"
        },
        {
          "name": "",
          "type": "string"
        },
        {
          "name": "",
          "type": "string[]"
        },
        {
          "name": "",
          "type": "uint256"
        }
      ],
      "payable": false,
      "stateMutability": "view",
      "type": "function"
    }
  ],
  "bytecode": "0x608060405234801561001057600080fd5b50336000806101000a81548173ffffffffffffffffffffffffffffffffffffffff021916908373ffffffffffffffffffffffffffffffffffffffff1602179055506112bf806100606000396000f300608060405260043610610099576000357c0100000000000000000000000000000000000000000000000000000000900463ffffffff168063288554711461009b5780632d0a85aa146100c457806341c0e1b5146101015780636605347d1461011857806366c112fc146101415780638da5cb5b1461017e5780639348c30d146101a9578063982b48d1146101e6578063984bc70014610225575b005b3480156100a757600080fd5b506100c260048036036100bd9190810190610e63565b610265565b005b3480156100d057600080fd5b506100eb60048036036100e69190810190610e3a565b6102e4565b6040516100f891906110db565b60405180910390f35b34801561010d57600080fd5b50610116610427565b005b34801561012457600080fd5b5061013f600480360361013a9190810190610da7565b6104b8565b005b34801561014d57600080fd5b5061016860048036036101639190810190610e3a565b6105ee565b60405161017591906110db565b60405180910390f35b34801561018a57600080fd5b5061019361069e565b6040516101a09190610fe6565b60405180910390f35b3480156101b557600080fd5b506101d060048036036101cb9190810190610e3a565b6106c3565b6040516101dd91906110db565b60405180910390f35b3480156101f257600080fd5b5061020d60048036036102089190810190610e3a565b610773565b60405161021c93929190611054565b60405180910390f35b34801561023157600080fd5b5061024c60048036036102479190810190610e3a565b610855565b60405161025c9493929190611001565b60405180910390f35b806001600084600019166000191681526020019081526020016000206002019080519060200190610297929190610a84565b5081600019163373ffffffffffffffffffffffffffffffffffffffff167f431202dc4cf9ec5cba6a79a9ab341db3ca17c2182dc52584b2558999eecd83b060405160405180910390a35050565b60008060009054906101000a900473ffffffffffffffffffffffffffffffffffffffff1673ffffffffffffffffffffffffffffffffffffffff163373ffffffffffffffffffffffffffffffffffffffff16141515610377576040517f08c379a000000000000000000000000000000000000000000000000000000000815260040161036e906110bb565b60405180910390fd5b6103e86001600084600019166000191681526020019081526020016000206003016000828254039250508190555081600019167f7abfc9285853378c85b200bd11aff679dc29b7ce51ef85ed184e149801dadd0633600160008660001916600019168152602001908152602001600020600301546040516103f9929190611092565b60405180910390a2600160008360001916600019168152602001908152602001600020600301549050919050565b6000809054906101000a900473ffffffffffffffffffffffffffffffffffffffff1673ffffffffffffffffffffffffffffffffffffffff163373ffffffffffffffffffffffffffffffffffffffff1614156104b6576000809054906101000a900473ffffffffffffffffffffffffffffffffffffffff1673ffffffffffffffffffffffffffffffffffffffff16ff5b565b6000600190506080604051908101604052808673ffffffffffffffffffffffffffffffffffffffff1681526020018581526020018481526020018281525060016000846000191660001916815260200190815260200160002060008201518160000160006101000a81548173ffffffffffffffffffffffffffffffffffffffff021916908373ffffffffffffffffffffffffffffffffffffffff1602179055506020820151816001019080519060200190610574929190610ae4565b506040820151816002019080519060200190610591929190610b64565b506060820151816003015590505081600019163373ffffffffffffffffffffffffffffffffffffffff167f431202dc4cf9ec5cba6a79a9ab341db3ca17c2182dc52584b2558999eecd83b060405160405180910390a35050505050565b6000600180600084600019166000191681526020019081526020016000206003016000828254019250508190555081600019167f7abfc9285853378c85b200bd11aff679dc29b7ce51ef85ed184e149801dadd063360016000866000191660001916815260200190815260200160002060030154604051610670929190611092565b60405180910390a2600160008360001916600019168152602001908152602001600020600301549050919050565b6000809054906101000a900473ffffffffffffffffffffffffffffffffffffffff1681565b6000600180600084600019166000191681526020019081526020016000206003016000828254039250508190555081600019167f7abfc9285853378c85b200bd11aff679dc29b7ce51ef85ed184e149801dadd063360016000866000191660001916815260200190815260200160002060030154604051610745929190611092565b60405180910390a2600160008360001916600019168152602001908152602001600020600301549050919050565b60016020528060005260406000206000915090508060000160009054906101000a900473ffffffffffffffffffffffffffffffffffffffff1690806001018054600181600116156101000203166002900480601f0160208091040260200160405190810160405280929190818152602001828054600181600116156101000203166002900480156108455780601f1061081a57610100808354040283529160200191610845565b820191906000526020600020905b81548152906001019060200180831161082857829003601f168201915b5050505050908060030154905083565b6000606080600060016000866000191660001916815260200190815260200160002060000160009054906101000a900473ffffffffffffffffffffffffffffffffffffffff1660016000876000191660001916815260200190815260200160002060010160016000886000191660001916815260200190815260200160002060020160016000896000191660001916815260200190815260200160002060030154828054600181600116156101000203166002900480601f01602080910402602001604051908101604052809291908181526020018280546001816001161561010002031660029004801561098b5780601f106109605761010080835404028352916020019161098b565b820191906000526020600020905b81548152906001019060200180831161096e57829003601f168201915b5050505050925081805480602002602001604051908101604052809291908181526020016000905b82821015610a6f578382906000526020600020018054600181600116156101000203166002900480601f016020809104026020016040519081016040528092919081815260200182805460018160011615610100020316600290048015610a5b5780601f10610a3057610100808354040283529160200191610a5b565b820191906000526020600020905b815481529060010190602001808311610a3e57829003601f168201915b5050505050815260200190600101906109b3565b50505050915093509350935093509193509193565b828054828255906000526020600020908101928215610ad3579160200282015b82811115610ad2578251829080519060200190610ac2929190610ae4565b5091602001919060010190610aa4565b5b509050610ae09190610bc4565b5090565b828054600181600116156101000203166002900490600052602060002090601f016020900481019282601f10610b2557805160ff1916838001178555610b53565b82800160010185558215610b53579182015b82811115610b52578251825591602001919060010190610b37565b5b509050610b609190610bf0565b5090565b828054828255906000526020600020908101928215610bb3579160200282015b82811115610bb2578251829080519060200190610ba2929190610ae4565b5091602001919060010190610b84565b5b509050610bc09190610bc4565b5090565b610bed91905b80821115610be95760008181610be09190610c15565b50600101610bca565b5090565b90565b610c1291905b80821115610c0e576000816000905550600101610bf6565b5090565b90565b50805460018160011615610100020316600290046000825580601f10610c3b5750610c5a565b601f016020900490600052602060002090810190610c599190610bf0565b5b50565b6000610c698235611208565b905092915050565b600082601f8301121515610c8457600080fd5b8135610c97610c9282611123565b6110f6565b9150818183526020840193506020810190508360005b83811015610cdd5781358601610cc38882610cfb565b845260208401935060208301925050600181019050610cad565b5050505092915050565b6000610cf38235611228565b905092915050565b600082601f8301121515610d0e57600080fd5b8135610d21610d1c8261114b565b6110f6565b91508082526020830160208301858383011115610d3d57600080fd5b610d48838284611232565b50505092915050565b600082601f8301121515610d6457600080fd5b8135610d77610d7282611177565b6110f6565b91508082526020830160208301858383011115610d9357600080fd5b610d9e838284611232565b50505092915050565b60008060008060808587031215610dbd57600080fd5b6000610dcb87828801610c5d565b945050602085013567ffffffffffffffff811115610de857600080fd5b610df487828801610d51565b935050604085013567ffffffffffffffff811115610e1157600080fd5b610e1d87828801610c71565b9250506060610e2e87828801610ce7565b91505092959194509250565b600060208284031215610e4c57600080fd5b6000610e5a84828501610ce7565b91505092915050565b60008060408385031215610e7657600080fd5b6000610e8485828601610ce7565b925050602083013567ffffffffffffffff811115610ea157600080fd5b610ead85828601610c71565b9150509250929050565b610ec0816111de565b82525050565b6000610ed1826111b0565b80845260208401935083602082028501610eea856111a3565b60005b84811015610f23578383038852610f05838351610f6a565b9250610f10826111d1565b9150602088019750600181019050610eed565b508196508694505050505092915050565b6000610f3f826111c6565b808452610f53816020860160208601611241565b610f5c81611274565b602085010191505092915050565b6000610f75826111bb565b808452610f89816020860160208601611241565b610f9281611274565b602085010191505092915050565b6000601682527f53656e646572206e6f7420617574686f72697a65642e000000000000000000006020830152604082019050919050565b610fe0816111fe565b82525050565b6000602082019050610ffb6000830184610eb7565b92915050565b60006080820190506110166000830187610eb7565b81810360208301526110288186610f34565b9050818103604083015261103c8185610ec6565b905061104b6060830184610fd7565b95945050505050565b60006060820190506110696000830186610eb7565b818103602083015261107b8185610f6a565b905061108a6040830184610fd7565b949350505050565b60006040820190506110a76000830185610eb7565b6110b46020830184610fd7565b9392505050565b600060208201905081810360008301526110d481610fa0565b9050919050565b60006020820190506110f06000830184610fd7565b92915050565b6000604051905081810181811067ffffffffffffffff8211171561111957600080fd5b8060405250919050565b600067ffffffffffffffff82111561113a57600080fd5b602082029050602081019050919050565b600067ffffffffffffffff82111561116257600080fd5b601f19601f8301169050602081019050919050565b600067ffffffffffffffff82111561118e57600080fd5b601f19601f8301169050602081019050919050565b6000602082019050919050565b600081519050919050565b600081519050919050565b600081519050919050565b6000602082019050919050565b600073ffffffffffffffffffffffffffffffffffffffff82169050919050565b6000819050919050565b600073ffffffffffffffffffffffffffffffffffffffff82169050919050565b6000819050919050565b82818337600083830152505050565b60005b8381101561125f578082015181840152602081019050611244565b8381111561126e576000848401525b50505050565b6000601f19601f83011690509190505600a265627a7a72305820a4333894bdb3ed5a0c4872698722082ca1ce35661aaaf205b8f08ed4ef57328a6c6578706572696d656e74616cf50037",
  "source": "pragma solidity ^0.4.24;\npragma experimental ABIEncoderV2;\n\ncontract NoFilter {\n    address public owner;\n\n    constructor() public {owner = msg.sender;}\n    \n    function kill() public { if (msg.sender == owner) selfdestruct(owner); }\n    \n    struct File {\n        address uploaderId;\n        string description;\n        string[] tags;\n        uint vote;\n    }\n    \n    \n    \n    event Vote(\n      address voter,        \n      bytes32 indexed ipfsHash,\n      uint vote\n    );\n    \n    event Alert(\n        address indexed uploaderId,\n        bytes32 indexed ipfsHash\n    );\n    \n    mapping(bytes32 => File) public details;\n\n    function upVote(bytes32 ipfsHash) public  returns (uint) {\n        details[ipfsHash].vote += 1;\n        emit Vote(msg.sender, ipfsHash, details[ipfsHash].vote);\n        return details[ipfsHash].vote;\n    }\n\n    function downVote(bytes32 ipfsHash) public  returns (uint) {\n        details[ipfsHash].vote -= 1;\n        emit Vote(msg.sender, ipfsHash, details[ipfsHash].vote);\n        return details[ipfsHash].vote;\n    }\n\n    function upload(address _uploaderId, string _description, string[] _tags, bytes32 ipfsHash ) public {\n        uint beginningVote = 1;\n        details[ipfsHash] = File(_uploaderId, _description, _tags, beginningVote);\n        // Item memory item = Item(_uploaderId, _description, _tags, beginningVote);\n        // details[ipfsHash] = item;\n        emit Alert(msg.sender, ipfsHash);\n    }\n    \n    function delist(bytes32 ipfsHash) public  returns (uint) {\n        require(msg.sender == owner, \"Sender not authorized.\");\n         /* should i be using this or a modifier like onlyOwner() { require(msg.sender==owner)_;} */\n        details[ipfsHash].vote -= 1000;\n        emit Vote(msg.sender, ipfsHash, details[ipfsHash].vote);\n        return details[ipfsHash].vote;\n    }\n    \n    function updateTags(bytes32 ipfsHash, string[] _tags) public {\n        //details[ipfsHash] = Item(details[ipfsHash].uploaderId, details[ipfsHash].description, _tags, details[ipfsHash].vote);\n        details[ipfsHash].tags = _tags;\n        emit Alert(msg.sender, ipfsHash);\n    }\n\n    function getDetails(bytes32 ipfsHash) public view returns (\n        address,\n        string,\n        string[],\n        uint\n    ) {\n        return (details[ipfsHash].uploaderId,\n            details[ipfsHash].description,\n            details[ipfsHash].tags,\n            details[ipfsHash].vote);\n    }\n    function() public payable { }\n}",
  "sourcePath": "/Users/yasin/noFilter/contracts/NoFilter.sol",
  "compiler": {
    "name": "solc",
    "version": "0.4.24+commit.e67f0147.Emscripten.clang"
  },
  "schemaVersion": "2.0.1",
  "updatedAt": "2018-08-19T23:23:40.454Z"
}