{
  "contractName": "NoFilter",
  "abi": [
    {
      "constant": true,
      "inputs": [],
      "name": "owner",
      "outputs": [
        {
          "name": "",
          "type": "address"
        }
      ],
      "payable": false,
      "stateMutability": "view",
      "type": "function"
    },
    {
      "constant": true,
      "inputs": [
        {
          "name": "",
          "type": "bytes32"
        }
      ],
      "name": "details",
      "outputs": [
        {
          "name": "uploaderId",
          "type": "address"
        },
        {
          "name": "description",
          "type": "string"
        },
        {
          "name": "vote",
          "type": "int256"
        }
      ],
      "payable": false,
      "stateMutability": "view",
      "type": "function"
    },
    {
      "inputs": [],
      "payable": false,
      "stateMutability": "nonpayable",
      "type": "constructor"
    },
    {
      "payable": true,
      "stateMutability": "payable",
      "type": "fallback"
    },
    {
      "anonymous": false,
      "inputs": [
        {
          "indexed": false,
          "name": "voter",
          "type": "address"
        },
        {
          "indexed": true,
          "name": "ipfsHash",
          "type": "bytes32"
        },
        {
          "indexed": false,
          "name": "vote",
          "type": "int256"
        }
      ],
      "name": "Vote",
      "type": "event"
    },
    {
      "anonymous": false,
      "inputs": [
        {
          "indexed": true,
          "name": "uploaderId",
          "type": "address"
        },
        {
          "indexed": true,
          "name": "ipfsHash",
          "type": "bytes32"
        }
      ],
      "name": "Alert",
      "type": "event"
    },
    {
      "constant": false,
      "inputs": [],
      "name": "kill",
      "outputs": [],
      "payable": false,
      "stateMutability": "nonpayable",
      "type": "function"
    },
    {
      "constant": false,
      "inputs": [
        {
          "name": "ipfsHash",
          "type": "bytes32"
        }
      ],
      "name": "upVote",
      "outputs": [
        {
          "name": "",
          "type": "int256"
        }
      ],
      "payable": false,
      "stateMutability": "nonpayable",
      "type": "function"
    },
    {
      "constant": false,
      "inputs": [
        {
          "name": "ipfsHash",
          "type": "bytes32"
        }
      ],
      "name": "downVote",
      "outputs": [
        {
          "name": "",
          "type": "int256"
        }
      ],
      "payable": false,
      "stateMutability": "nonpayable",
      "type": "function"
    },
    {
      "constant": false,
      "inputs": [
        {
          "name": "_uploaderId",
          "type": "address"
        },
        {
          "name": "_description",
          "type": "string"
        },
        {
          "name": "ipfsHash",
          "type": "bytes32"
        }
      ],
      "name": "upload",
      "outputs": [],
      "payable": false,
      "stateMutability": "nonpayable",
      "type": "function"
    },
    {
      "constant": false,
      "inputs": [
        {
          "name": "ipfsHash",
          "type": "bytes32"
        }
      ],
      "name": "delist",
      "outputs": [
        {
          "name": "",
          "type": "int256"
        }
      ],
      "payable": false,
      "stateMutability": "nonpayable",
      "type": "function"
    },
    {
      "constant": true,
      "inputs": [
        {
          "name": "ipfsHash",
          "type": "bytes32"
        }
      ],
      "name": "getDetails",
      "outputs": [
        {
          "name": "",
          "type": "address"
        },
        {
          "name": "",
          "type": "string"
        },
        {
          "name": "",
          "type": "int256"
        }
      ],
      "payable": false,
      "stateMutability": "view",
      "type": "function"
    }
  ],
  "bytecode": "0x608060405234801561001057600080fd5b50336000806101000a81548173ffffffffffffffffffffffffffffffffffffffff021916908373ffffffffffffffffffffffffffffffffffffffff160217905550610cef806100606000396000f30060806040526004361061008e576000357c0100000000000000000000000000000000000000000000000000000000900463ffffffff168063034d2330146100905780632d0a85aa1461012757806341c0e1b51461016c57806366c112fc146101835780638da5cb5b146101c85780639348c30d1461021f578063982b48d114610264578063984bc70014610348575b005b34801561009c57600080fd5b50610125600480360381019080803573ffffffffffffffffffffffffffffffffffffffff169060200190929190803590602001908201803590602001908080601f0160208091040260200160405190810160405280939291908181526020018383808284378201915050505050509192919290803560001916906020019092919050505061042c565b005b34801561013357600080fd5b50610156600480360381019080803560001916906020019092919050505061054a565b6040518082815260200191505060405180910390f35b34801561017857600080fd5b506101816106f2565b005b34801561018f57600080fd5b506101b260048036038101908080356000191690602001909291905050506107f0565b6040518082815260200191505060405180910390f35b3480156101d457600080fd5b506101dd6108d2565b604051808273ffffffffffffffffffffffffffffffffffffffff1673ffffffffffffffffffffffffffffffffffffffff16815260200191505060405180910390f35b34801561022b57600080fd5b5061024e60048036038101908080356000191690602001909291905050506108f7565b6040518082815260200191505060405180910390f35b34801561027057600080fd5b5061029360048036038101908080356000191690602001909291905050506109d9565b604051808473ffffffffffffffffffffffffffffffffffffffff1673ffffffffffffffffffffffffffffffffffffffff16815260200180602001838152602001828103825284818151815260200191508051906020019080838360005b8381101561030b5780820151818401526020810190506102f0565b50505050905090810190601f1680156103385780820380516001836020036101000a031916815260200191505b5094505050505060405180910390f35b34801561035457600080fd5b506103776004803603810190808035600019169060200190929190505050610abb565b604051808473ffffffffffffffffffffffffffffffffffffffff1673ffffffffffffffffffffffffffffffffffffffff16815260200180602001838152602001828103825284818151815260200191508051906020019080838360005b838110156103ef5780820151818401526020810190506103d4565b50505050905090810190601f16801561041c5780820380516001836020036101000a031916815260200191505b5094505050505060405180910390f35b6000610436610be6565b600191506060604051908101604052808673ffffffffffffffffffffffffffffffffffffffff1681526020018581526020018381525090508060016000856000191660001916815260200190815260200160002060008201518160000160006101000a81548173ffffffffffffffffffffffffffffffffffffffff021916908373ffffffffffffffffffffffffffffffffffffffff16021790555060208201518160010190805190602001906104ed929190610c1e565b506040820151816002015590505082600019163373ffffffffffffffffffffffffffffffffffffffff167f431202dc4cf9ec5cba6a79a9ab341db3ca17c2182dc52584b2558999eecd83b060405160405180910390a35050505050565b60008060009054906101000a900473ffffffffffffffffffffffffffffffffffffffff1673ffffffffffffffffffffffffffffffffffffffff163373ffffffffffffffffffffffffffffffffffffffff16141515610610576040517f08c379a00000000000000000000000000000000000000000000000000000000081526004018080602001828103825260168152602001807f53656e646572206e6f7420617574686f72697a65642e0000000000000000000081525060200191505060405180910390fd5b6103e86001600084600019166000191681526020019081526020016000206002016000828254039250508190555081600019167fd2a9520f93bcb126d294c414716471f2b8828e071b68a5a1b20679f1bfdbfa6c3360016000866000191660001916815260200190815260200160002060020154604051808373ffffffffffffffffffffffffffffffffffffffff1673ffffffffffffffffffffffffffffffffffffffff1681526020018281526020019250505060405180910390a2600160008360001916600019168152602001908152602001600020600201549050919050565b6000809054906101000a900473ffffffffffffffffffffffffffffffffffffffff1673ffffffffffffffffffffffffffffffffffffffff163373ffffffffffffffffffffffffffffffffffffffff161415156107b6576040517f08c379a00000000000000000000000000000000000000000000000000000000081526004018080602001828103825260168152602001807f53656e646572206e6f7420617574686f72697a65642e0000000000000000000081525060200191505060405180910390fd5b6000809054906101000a900473ffffffffffffffffffffffffffffffffffffffff1673ffffffffffffffffffffffffffffffffffffffff16ff5b6000600180600084600019166000191681526020019081526020016000206002016000828254019250508190555081600019167fd2a9520f93bcb126d294c414716471f2b8828e071b68a5a1b20679f1bfdbfa6c3360016000866000191660001916815260200190815260200160002060020154604051808373ffffffffffffffffffffffffffffffffffffffff1673ffffffffffffffffffffffffffffffffffffffff1681526020018281526020019250505060405180910390a2600160008360001916600019168152602001908152602001600020600201549050919050565b6000809054906101000a900473ffffffffffffffffffffffffffffffffffffffff1681565b6000600180600084600019166000191681526020019081526020016000206002016000828254039250508190555081600019167fd2a9520f93bcb126d294c414716471f2b8828e071b68a5a1b20679f1bfdbfa6c3360016000866000191660001916815260200190815260200160002060020154604051808373ffffffffffffffffffffffffffffffffffffffff1673ffffffffffffffffffffffffffffffffffffffff1681526020018281526020019250505060405180910390a2600160008360001916600019168152602001908152602001600020600201549050919050565b60016020528060005260406000206000915090508060000160009054906101000a900473ffffffffffffffffffffffffffffffffffffffff1690806001018054600181600116156101000203166002900480601f016020809104026020016040519081016040528092919081815260200182805460018160011615610100020316600290048015610aab5780601f10610a8057610100808354040283529160200191610aab565b820191906000526020600020905b815481529060010190602001808311610a8e57829003601f168201915b5050505050908060020154905083565b60006060600060016000856000191660001916815260200190815260200160002060000160009054906101000a900473ffffffffffffffffffffffffffffffffffffffff1660016000866000191660001916815260200190815260200160002060010160016000876000191660001916815260200190815260200160002060020154818054600181600116156101000203166002900480601f016020809104026020016040519081016040528092919081815260200182805460018160011615610100020316600290048015610bd25780601f10610ba757610100808354040283529160200191610bd2565b820191906000526020600020905b815481529060010190602001808311610bb557829003601f168201915b505050505091509250925092509193909250565b606060405190810160405280600073ffffffffffffffffffffffffffffffffffffffff16815260200160608152602001600081525090565b828054600181600116156101000203166002900490600052602060002090601f016020900481019282601f10610c5f57805160ff1916838001178555610c8d565b82800160010185558215610c8d579182015b82811115610c8c578251825591602001919060010190610c71565b5b509050610c9a9190610c9e565b5090565b610cc091905b80821115610cbc576000816000905550600101610ca4565b5090565b905600a165627a7a723058209d11f6c45c654c702e9cbc823da440b999fa2b38f7205cce1bda3d438f7ee4350029",
  "source": "pragma solidity ^0.4.24;\n\ncontract NoFilter {\n    address public owner;\n\n    constructor() public {owner = msg.sender;}\n    \n    function kill() public {\n        require(msg.sender == owner, \"Sender not authorized.\");\n        selfdestruct(owner);\n    }\n    \n\n    struct File {\n        address uploaderId;\n        string description;\n        int vote;\n    }\n    \n    \n    \n    event Vote(address voter, bytes32 indexed ipfsHash, int vote); \n    \n    event Alert(address indexed uploaderId, bytes32 indexed ipfsHash);\n    \n    mapping(bytes32 => File) public details;\n\n    function upVote(bytes32 ipfsHash) public  returns (int) {\n        details[ipfsHash].vote += 1;\n        emit Vote(msg.sender, ipfsHash, details[ipfsHash].vote);\n        return details[ipfsHash].vote;\n    }\n\n    function downVote(bytes32 ipfsHash) public  returns (int) {\n        details[ipfsHash].vote -= 1;\n        emit Vote(msg.sender, ipfsHash, details[ipfsHash].vote);\n        return details[ipfsHash].vote;\n    }\n\n    function upload(address _uploaderId, string _description, bytes32 ipfsHash ) public {\n        int beginningVote = 1;\n        File memory newFile = File(_uploaderId, _description, beginningVote);\n\n        details[ipfsHash] = newFile;\n        emit Alert(msg.sender, ipfsHash);\n    }\n    \n    function delist(bytes32 ipfsHash) public  returns (int) {\n        require(msg.sender == owner, \"Sender not authorized.\");\n       \n        details[ipfsHash].vote -= 1000;\n        emit Vote(msg.sender, ipfsHash, details[ipfsHash].vote);\n        return details[ipfsHash].vote;\n    }\n\n    function getDetails(bytes32 ipfsHash) public view returns (\n        address,\n        string,\n        int\n    ) {\n        return (details[ipfsHash].uploaderId,\n            details[ipfsHash].description,\n            details[ipfsHash].vote);\n    }\n    function() public payable { }\n}",
  "sourcePath": "/Users/yasin/noFilter/contracts/NoFilter.sol",
  "compiler": {
    "name": "solc",
    "version": "0.4.24+commit.e67f0147.Emscripten.clang"
  },
  "schemaVersion": "2.0.1",
  "updatedAt": "2018-08-24T04:59:29.338Z"
}